S00A00004F532E7372656378
S11300000C942A000C943C000C943C000C943C008E
S11300100C943C000C943C000C943C000C943C006C
S11300200C943C000C943C000C94A4020C943C00F2
S11300300C943C000C943C000C943C000C943C004C
S11300400C943C000C943C000C943C000C943C003C
S11300500C943C0011241FBECFE5D8E0DEBFCDBF19
S113006020E0A0E6B0E001C01D92A838B207E1F795
S11300700E942C020C94A7050C940000CF93DF93EC
S11300801F92CDB7DEB789838981883088F489E3EC
S113009090E0FC018081482F8981282F30E081E0A5
S11300A090E002C0880F991F2A95E2F784234FC07D
S11300B089818830B8F089818031A0F486E390E0AA
S11300C0FC018081482F8981882F90E09C01285071
S11300D0310981E090E002C0880F991F2A95E2F768
S11300E0842335C089818031B8F089818931A0F4B5
S11300F083E390E0FC018081482F8981882F90E080
S11301009C012051310981E090E002C0880F991FC1
S11301102A95E2F784231BC089818931B8F089814B
S11301208032A0F480E390E0FC018081482F898133
S1130130882F90E09C012951310981E090E002C0B0
S1130140880F991F2A95E2F7842301C080E00F905D
S1130150DF91CF910895CF93DF9300D0CDB7DEB771
S113016089836A838981883098F58A81882F90E011
S11301700097C1F0019709F0ECC08AE390E02AE30C
S113018030E0F9012081622F2981422F50E021E0E3
S113019030E002C0220F331F4A95E2F7262BFC0100
S11301A02083D7C08AE390E02AE330E0F90120817C
S11301B0622F2981422F50E021E030E002C0220F5B
S11301C0331F4A95E2F720952623FC012083C1C002
S11301D08981883008F43DC089818031D0F58A81D5
S11301E0882F90E00097D9F0019709F031C087E398
S11301F090E027E330E0F9012081622F2981222F4A
S113020030E0A9014850510921E030E002C0220F3A
S1130210331F4A95E2F7262BFC01208319C087E39C
S113022090E027E330E0F9012081622F2981222F19
S113023030E0A9014850510921E030E002C0220F0A
S1130240331F4A95E2F720952623FC012083000002
S113025080C08981803108F43DC089818931D0F51D
S11302608A81882F90E00097D9F0019709F031C076
S113027084E390E024E330E0F9012081622F2981B6
S1130280222F30E0A9014051510921E030E002C0A1
S1130290220F331F4A95E2F7262BFC01208319C055
S11302A084E390E024E330E0F9012081622F298186
S11302B0222F30E0A9014051510921E030E002C071
S11302C0220F331F4A95E2F720952623FC01208351
S11302D000003FC089818931E0F189818032C8F50D
S11302E08A81882F90E00097D9F0019709F031C0F6
S11302F081E390E021E330E0F9012081622F29813C
S1130300222F30E0A9014951510921E030E002C017
S1130310220F331F4A95E2F7262BFC01208319C0D4
S113032081E390E021E330E0F9012081622F29810B
S1130330222F30E0A9014951510921E030E002C0E7
S1130340220F331F4A95E2F720952623FC012083D0
S1130350000000000F900F90DF91CF910895CF938C
S1130360DF931F92CDB7DEB7898389818830A8F4E3
S11303708BE390E02BE330E0F9012081622F2981A7
S1130380422F50E021E030E002C0220F331F4A9593
S1130390E2F72627FC0120835AC089818830D8F0EF
S11303A089818031C0F488E390E028E330E0F901EA
S11303B02081622F2981222F30E0A9014850510960
S11303C021E030E002C0220F331F4A95E2F72627CE
S11303D0FC0120833CC089818031D8F08981893136
S11303E0C0F485E390E025E330E0F9012081622F39
S11303F02981222F30E0A9014051510921E030E048
S113040002C0220F331F4A95E2F72627FC012083FE
S11304101EC089818931D8F089818032C0F480E39B
S113042090E020E330E0F9012081622F2981222F1E
S113043030E0A9014951510921E030E002C0220F06
S1130440331F4A95E2F72627FC01208300C00000F1
S11304500F90DF91CF910895CF93DF93CDB7DEB79F
S113046061E08CE00E94AB0061E08DE00E94AB0093
S113047061E08EE00E94AB0060E08AE00E94AB0085
S11304800E94DB020E940E0380E090E0DF91CF9196
S11304900895CF93DF93CDB7DEB78CE00E94AF0110
S11304A00000DF91CF910895CF93DF93CDB7DEB7EE
S11304B08DE00E94AF010000DF91CF910895CF93AA
S11304C0DF93CDB7DEB78EE00E94AF010000DF916D
S11304D0CF910895CF93DF931F92CDB7DEB7898371
S11304E082E590E0FC0110828CE590E02981FC011A
S11304F0208389E590E029E530E0F901208122603C
S1130500FC012083789483E590E023E530E0F90151
S113051020812B68FC01208300000F90DF91CF9194
S11305200895CF93DF9300D0CDB7DEB79A83898344
S113053089819A81909361008093600000000F90FC
S11305400F90DF91CF9108951F920F9200905F005A
S11305500F9211242F933F934F935F936F937F9345
S11305608F939F93AF93BF93EF93FF93CF93DF93B7
S1130570CDB7DEB78091600090916100892B31F096
S11305808091600090916100FC0109950000DF9169
S1130590CF91FF91EF91BF91AF919F918F917F91F7
S11305A06F915F914F913F912F910F9000925F0057
S11305B00F901F901895CF93DF93CDB7DEB722E04D
S11305C040ED57E060E070E089E492E00E94F103BE
S11305D020E040ED57E060E070E084E592E00E94A6
S11305E0F10321E040EA5FE060E070E08FE592E033
S11305F00E94F1038091620090916300A0916400D5
S1130600B0916500682F87E690E00E948E0488EC24
S11306100E946A020000DF91CF910895CF93DF9387
S1130620CDB7DEB786EE93E00E949102809166001A
S11306308130C1F7109266008AE00E943E00882350
S1130640E9F000008AE00E943E008823D9F789E49B
S113065092E00E9428058091620090916300A0912D
S11306606400B09165000197A109B109809362000B
S113067090936300A0936400B0936500809162003E
S113068090916300A0916400B0916500AC01BD013C
S113069087E690E00E944D03C5CFCF93DF93CDB79B
S11306A0DEB72A970FB6F894DEBF0FBECDBF9E8388
S11306B08D834F83588769877A8719821A821B82B0
S11306C01C826CC029813A814BE0429FC001439F48
S11306D0900D11242D813E81820F931FFC01868190
S11306E09781A085B185892B8A2B8B2B99F529813C
S11306F03A814BE0429FC001439F900D11242D810C
S11307003E81820F931FFC0180819181FC01099538
S113071029813A814BE0429FC001439F900D1124EF
S11307202D813E81280F391F49815A816BE0649FD6
S1130730C001659F900D11244D815E81840F951F2A
S1130740FC0182819381A481B581F9018683978319
S1130750A087B18729813A814BE0429FC001439F22
S1130760900D11242D813E81280F391FF9018681B6
S11307709781A085B1850197A109B109F901868303
S11307809783A087B18789819A81AB81BC810196C7
S1130790A11DB11D89839A83AB83BC8329813A81CE
S11307A04B815C818F819885A985BA852817390783
S11307B04A075B0708F486CF00002A960FB6F89420
S11307C0DEBF0FBECDBFDF91CF910895CF93DF93EE
S11307D0CDB7DEB781E0809366000000DF91CF9152
S11307E00895CF93DF93CDB7DEB727970FB6F8946C
S11307F0DEBF0FBECDBF9A8389834B835C836D8339
S11308007E832F838091620090916300A0916400A5
S1130810B09165000397A105B10508F075C08091FA
S1130820620090916300A0916400B09165009C0106
S11308304BE0429FC001439F900D112489599F4F63
S113084029813A81FC013183208380916200909157
S11308506300A0916400B09165009C014BE0429F4D
S1130860C001439F900D11249C0127593F4F8B8158
S11308709C81AD81BE81F90180839183A283B3837E
S11308808091620090916300A0916400B091650032
S11308909C014BE0429FC001439F900D11249C0199
S11308A023593F4F8B819C81AD81BE81F9018083A7
S11308B09183A283B3838091620090916300A0919D
S11308C06400B09165009C014BE0429FC001439FCE
S11308D0900D11248F589F4F2F81FC01208380910C
S11308E0620090916300A0916400B091650001964C
S11308F0A11DB11D8093620090936300A0936400D6
S1130900B093650081E001C080E027960FB6F894AB
S1130910DEBF0FBECDBFDF91CF910895CF93DF939C
S1130920CDB7DEB760970FB6F894DEBF0FBECDBF6C
S11309309F878E87688B19827CC089818F5F8A83A9
S113094070C08A81282F30E04BE0429FC001439F52
S1130950900D11242E853F85820F931FFC01428543
S11309608981282F30E05BE0529FC001539F900D96
S113097011242E853F85820F931FFC018285481721
S113098008F04CC08981282F30E04BE0429FC00121
S1130990439F900D11242E853F85820F931F2BE0DA
S11309A0FC01DE01139601900D922A95E1F78981ED
S11309B0282F30E04BE0429FC001439F900D11244B
S11309C02E853F85A901480F591F8A81282F30E0C1
S11309D06BE0629FC001639F900D11242E853F85BB
S11309E0820F931F2BE0FC01DA0101900D922A95EE
S11309F0E1F78A81282F30E04BE0429FC001439FFA
S1130A00900D11242E853F85820F931F2BE0FE014C
S1130A103396DC0101900D922A95E1F78A818F5F6C
S1130A208A839A818889981708F48BCF89818F5F8C
S1130A30898399818889981708F47FCF000060968C
S1130A400FB6F894DEBF0FBECDBFDF91CF910895EE
S1130A50CF93DF93CDB7DEB72A970FB6F894DEBFF6
S1130A600FBECDBF9A87898719821A821B821C8286
S1130A701DC029813A814BE0429FC001439F900DE4
S1130A80112489599F4FFC012081318189859A85E0
S1130A9028173907A1F089819A81AB81BC8101961D
S1130AA0A11DB11D89839A83AB83BC8389819A81FB
S1130AB0AB81BC810397A105B105D8F201C0000048
S1130AC089819A81AB81BC818D839E83AF83B887F2
S1130AD02CC08D819E81AF81B8850196A11DB11D69
S1130AE04D815E816BE0649F9001659F300D112400
S1130AF029593F4FAC016BE0649FC001659F900D85
S1130B00112489599F4F4BE0FC01D90101900D92AA
S1130B104A95E1F78D819E81AF81B8850196A11D2B
S1130B20B11D8D839E83AF83B8878D819E81AF81F4
S1130B30B8850397A105B10560F200002A960FB6A7
S1130B40F894DEBF0FBECDBFDF91CF910895F89426
S1050B50FFCFD1
S9030000FC
