:100000000C942A000C943C000C943C000C943C0092
:100010000C943C000C943C000C943C000C943C0070
:100020000C943C000C943C000C9433020C943C0067
:100030000C943C000C943C000C943C000C943C0050
:100040000C943C000C943C000C943C000C943C0040
:100050000C943C0011241FBECFE5D8E0DEBFCDBF1D
:1000600020E0A0E6B0E001C01D92AC38B207E1F795
:100070000E94BF010C94E6030C940000CF93DF9321
:1000800000D0CDB7DEB789836A838981883098F53F
:100090008A81882F90E00097C1F0019709F0ECC0A9
:1000A0008AE390E02AE330E0F9012081622F298180
:1000B000422F50E021E030E002C0220F331F4A956A
:1000C000E2F7262BFC012083D7C08AE390E02AE3E5
:1000D00030E0F9012081622F2981422F50E021E098
:1000E00030E002C0220F331F4A95E2F72095262305
:1000F000FC012083C1C08981883008F43DC089811A
:100100008031D0F58A81882F90E00097D9F001974F
:1001100009F031C087E390E027E330E0F901208166
:10012000622F2981222F30E0A9014850510921E096
:1001300030E002C0220F331F4A95E2F7262BFC0164
:10014000208319C087E390E027E330E0F9012081A4
:10015000622F2981222F30E0A9014850510921E066
:1001600030E002C0220F331F4A95E2F72095262384
:10017000FC012083000080C08981803108F43DC0EB
:1001800089818831D0F58A81882F90E00097D9F055
:10019000019709F031C084E390E024E330E0F901F5
:1001A0002081622F2981222F30E0A901405151097D
:1001B00021E030E002C0220F331F4A95E2F7262BE0
:1001C000FC01208319C084E390E024E330E0F901CE
:1001D0002081622F2981222F30E0A901405151094D
:1001E00021E030E002C0220F331F4A95E2F720954C
:1001F0002623FC01208300003FC089818831E0F183
:1002000089818032C8F58A81882F90E00097D9F0E3
:10021000019709F031C081E390E021E330E0F9017A
:100220002081622F2981222F30E0A90148515109F4
:1002300021E030E002C0220F331F4A95E2F7262B5F
:10024000FC01208319C081E390E021E330E0F90153
:100250002081622F2981222F30E0A90148515109C4
:1002600021E030E002C0220F331F4A95E2F72095CB
:100270002623FC012083000000000F900F90DF91E7
:10028000CF910895CF93DF931F92CDB7DEB78983C7
:1002900089818830A8F48BE390E02BE330E0F9010A
:1002A0002081622F2981422F50E021E030E002C0FE
:1002B000220F331F4A95E2F72627FC0120835AC0FC
:1002C00089818830D8F089818031C0F488E390E05A
:1002D00028E330E0F9012081622F2981222F30E0CC
:1002E000A9014850510921E030E002C0220F331F1C
:1002F0004A95E2F72627FC0120833CC089818031A2
:10030000D8F089818831C0F485E390E025E330E0BE
:10031000F9012081622F2981222F30E0A90140516B
:10032000510921E030E002C0220F331F4A95E2F765
:100330002627FC0120831EC089818831D8F089815D
:100340008032C0F480E390E020E330E0F9012081C6
:10035000622F2981222F30E0A9014851510921E063
:1003600030E002C0220F331F4A95E2F72627FC0136
:10037000208300C000000F90DF91CF910895CF93AC
:10038000DF93CDB7DEB761E08CE00E943E0061E014
:100390008DE00E943E0061E08EE00E943E000E94DF
:1003A0007D020E94A00280E090E0DF91CF9108954D
:1003B000CF93DF93CDB7DEB78CE00E9442010000FF
:1003C000DF91CF910895CF93DF93CDB7DEB78DE066
:1003D0000E9442010000DF91CF910895CF93DF93F7
:1003E000CDB7DEB78EE00E9442010000DF91CF91D1
:1003F0000895CF93DF931F92CDB7DEB7898382E54F
:1004000090E0FC0110828CE590E02981FC012083C2
:1004100089E590E029E530E0F90120812260FC01C6
:100420002083789483E590E023E530E0F901208192
:100430002B68FC01208300000F90DF91CF9108957D
:10044000CF93DF9300D0CDB7DEB79A8389838981BC
:100450009A81909361008093600000000F900F904C
:10046000DF91CF9108951F920F9200905F000F923D
:1004700011242F933F934F935F936F937F938F93A9
:100480009F93AF93BF93EF93FF93CF93DF93CDB73A
:10049000DEB78091620090916300A0916400B091FA
:1004A00065000196A11DB11D8093620090936300C9
:1004B000A0936400B093650080916000909161000A
:1004C000892B31F08091600090916100FC010995C9
:1004D0000000DF91CF91FF91EF91BF91AF919F917C
:1004E0008F917F916F915F914F913F912F910F90DD
:1004F00000925F000F901F901895CF93DF93CDB7B8
:10050000DEB748EB5BE060E070E088ED91E00E94D0
:10051000610340EA5FE060E070E083EE91E00E94FA
:10052000610348E853E160E070E08EEE91E00E94E4
:10053000610388EC0E94F9010000DF91CF910895DA
:10054000CF93DF93CDB7DEB786E593E00E9420021C
:1005500080916A008130C1F78091660090916700B8
:10056000A0916800B0916900AC01BD018BE690E0FC
:100570000E94BD0210926A00E7CFCF93DF93CDB700
:10058000DEB72A970FB6F894DEBF0FBECDBF9E83AD
:100590008D834F83588769877A8719821A821B82D5
:1005A0001C826CC029813A814BE0429FC001439F6D
:1005B000900D11242D813E81820F931FFC018681B5
:1005C0009781A085B185892B8A2B8B2B99F5298161
:1005D0003A814BE0429FC001439F900D11242D8131
:1005E0003E81820F931FFC0180819181FC0109955E
:1005F00029813A814BE0429FC001439F900D112415
:100600002D813E81280F391F49815A816BE0649FFB
:10061000C001659F900D11244D815E81840F951F4F
:10062000FC0182819381A481B581F901868397833E
:10063000A087B18729813A814BE0429FC001439F47
:10064000900D11242D813E81280F391FF9018681DB
:100650009781A085B1850197A109B109F901868328
:100660009783A087B18789819A81AB81BC810196EC
:10067000A11DB11D89839A83AB83BC8329813A81F3
:100680004B815C818F819885A985BA8528173907A8
:100690004A075B0708F486CF00002A960FB6F89445
:1006A000DEBF0FBECDBFDF91CF910895CF93DF9313
:1006B000CDB7DEB781E080936A000000DF91CF9173
:1006C0000895CF93DF9300D000D000D0CDB7DEB730
:1006D0009A8389834B835C836D837E8380916600DC
:1006E00090916700A0916800B09169000397A105FF
:1006F000B10508F061C08091660090916700A091FB
:100700006800B09169009C014BE0429FC001439F8B
:10071000900D112485599F4F29813A81FC01318325
:1007200020838091660090916700A0916800B0914D
:1007300069009C014BE0429FC001439F900D112432
:100740009C0123593F4F8B819C81AD81BE81F90172
:1007500080839183A283B383809166009091670028
:10076000A0916800B09169009C014BE0429FC001DC
:10077000439F900D11249C012F583F4F8B819C81EA
:10078000AD81BE81F90180839183A283B38380917F
:10079000660090916700A0916800B0916900019691
:1007A000A11DB11D8093660090936700A09368001F
:1007B000B093690081E001C080E026960FB6F894FE
:1007C000DEBF0FBECDBFDF91CF910895F894FFCF6C
:00000001FF
